:100000000C945C000C9479000C9479000C947900A9
:100010000C9479000C9479000C9479000C9479007C
:100020000C9479000C9479000C9479000C9479006C
:100030000C9479000C9479000C9479000C9479005C
:100040000C9454010C9479000C9479000C94790070
:100050000C9479000C9479000C9479000C9479003C
:100060000C9479000C947900000000080002010053
:100070000003040700000000000000000000000072
:10008000250028002B0000000000240027002A0083
:10009000040404040404040402020202020203032E
:1000A0000303030301020408102040800102040836
:1000B000102001020408102011241FBECFEFD8E049
:1000C000DEBFCDBF12E0A0E0B1E0E8E3F4E002C0A3
:1000D00005900D92A030B107D9F722E0A0E0B2E080
:1000E00001C01D92A930B207E1F70E949E010C9455
:1000F0001A020C94000090E0FC01EC55FF4F249193
:1001000080579F4FFC018491882399F090E0880FDD
:10011000991FFC01EA57FF4FA591B491FC01E458E7
:10012000FF4F859194918FB7F894EC91E22BEC936B
:100130008FBF089590E0FC01E859FF4F2491FC0126
:10014000EC55FF4F3491FC01E057FF4FE491EE2353
:10015000C9F0222339F0233001F1A8F4213019F13C
:10016000223029F1F0E0EE0FFF1FE458FF4FA59178
:10017000B4918FB7F894EC91611126C030953E236D
:100180003C938FBF08952730A9F02830C9F0243060
:1001900049F7809180008F7D03C0809180008F7728
:1001A00080938000DFCF84B58F7784BDDBCF84B5AB
:1001B0008F7DFBCF8091B0008F778093B000D2CF3E
:1001C0008091B0008F7DF9CF3E2BDACF3FB7F89406
:1001D0008091050290910602A0910702B091080259
:1001E00026B5A89B05C02F3F19F00196A11DB11D92
:1001F0003FBFBA2FA92F982F8827BC01CD01620FCE
:10020000711D811D911D43E0660F771F881F991F87
:100210004A95D1F708958F929F92AF92BF92CF9255
:10022000DF92EF92FF924B015C010E94E6006B01AE
:100230007C010E94E6006C197D098E099F09683EC9
:10024000734081059105A8F321E0821A9108A10865
:10025000B10888EEC80E83E0D81EE11CF11C8114A1
:100260009104A104B10429F7FF90EF90DF90CF90A3
:10027000BF90AF909F908F900895CF93DF93D82F2A
:10028000C8E06D2F617085E00E949A00D69561E00C
:1002900087E00E949A0060E087E00E949A00C150C7
:1002A00081F7DF91CF9108951F920F920FB60F92B1
:1002B00011242F933F938F939F93AF93BF9380917C
:1002C000010290910202A0910302B09104023091C8
:1002D000000226E0230F2D3758F50296A11DB11D0F
:1002E000209300028093010290930202A0930302E4
:1002F000B09304028091050290910602A09107023A
:10030000B09108020196A11DB11D80930502909342
:100310000602A0930702B0930802BF91AF919F918C
:100320008F913F912F910F900FBE0F901F901895B6
:1003300029E8230F0396A11DB11DD2CF789484B56F
:10034000826084BD84B5816084BD85B5826085BDD1
:1003500085B5816085BD80916E00816080936E005F
:100360001092810080918100826080938100809151
:100370008100816080938100809180008160809302
:1003800080008091B10084608093B1008091B000C2
:1003900081608093B00080917A00846080937A00BD
:1003A00080917A00826080937A0080917A008E7FBB
:1003B00080937A0080917A00806880937A0010920E
:1003C000C10086E00E947B0087E00E947B0085E000
:1003D0000E947B0000E010E0C0E0D1E060E086E039
:1003E0000E949A00F880898122960E943D018F2DFB
:1003F0000E943D0161E070E080E090E00E940B010E
:1004000061E086E00E949A0061E070E080E090E0A8
:100410000E940B0168EC70E080E090E00E940B010C
:1004200082E0C030D807D1F601151105A9F20E946B
:080430000000D2CFF894FFCFC9
:10043800FEFFFFBFFFEFFFFDFFFEFF7F7FFFF7FF20
:10044800FBFFFDFFFFDFFFF7FFFBDFFFBFFFEFFF56
:10045800FFFFFFFFFFFFFFFFFFFFFFFFFFFFFFFFA4
:10046800FFFFFFFFFFFFFFFFFFFFFFFFFFFFFFFF94
:10047800FFFFFFFFFFFFFFFFFFFFFFFFFFFFFFFF84
:10048800FFFFFFFFFFFFFFFFFFFFFFFFFFFFFFFF74
:10049800762CDDFF6E26FE24E7E5E6346634FEADF5
:1004A8006624E624FFFFFFFFFFFFFFFFFFFFFFFFBC
:1004B800FFFF66A5DC24763EDC2C663666B776340C
:1004C80067E5DC3E7F6C67DB777E73CD73E9762C5E
:1004D80066A7762866A3E230DCBF776C37DF37E99A
:1004E800BBDBDBDFBE1EFFFFFFFFFFFFFFFFFFFFE2
:1004F800FFFF4F7E477F6F7F4D7F2F7FCDB7C47F34
:1005080047FFDEFFDD7F67F3777F4FF54FFF4F7FB4
:1005180064FFC4FF6FFFFF72677F5F7F3FFF3FF994
:10052800BBDBC57FAF7FFFFFFFFFFFFFFFFFFFFFC5
:00000001FF
