:1040000000000320C14D0000AD4D0000AD4D00008B
:10401000AD4D0000AD4D0000AD4D000000000000B2
:10402000000000000000000000000000AD4D000096
:10403000AD4D000000000000AD4D0000554E0000E9
:10404000AD4D0000AD4D0000AD4D0000AD4D000088
:10405000AD4D0000AD4D0000AD4D0000AD4D000078
:10406000AD4D0000AD4D0000AD4D0000AD4D000068
:10407000AD4D0000AD4D0000AD4D0000AD4D000058
:10408000AD4D0000AD4D0000AD4D0000AD4D000048
:10409000AD4D0000AD4D0000AD4D0000AD4D000038
:1040A000AD4D0000AD4D0000AD4D0000AD4D000028
:1040B000AD4D0000AD4D0000AD4D0000AD4D000018
:1040C000AD4D0000AD4D0000AD4D0000AD4D000008
:1040D000AD4D0000AD4D0000AD4D0000AD4D0000F8
:1040E000AD4D0000AD4D0000AD4D0000AD4D0000E8
:1040F00000000000AD4D0000AD4D0000AD4D0000D2
:10410000AD4D0000AD4D0000AD4D0000AD4D0000C7
:10411000AD4D0000AD4D0000AD4D0000AD4D0000B7
:10412000AD4D0000AD4D0000AD4D0000AD4D0000A7
:10413000AD4D0000AD4D0000AD4D0000AD4D000097
:10414000AD4D0000AD4D00001543000021430000BF
:104150002D43000039430000AD4D0000AD4D00007F
:10416000AD4D0000AD4D0000AD4D0000AD4D000067
:10417000AD4D0000AD4D0000AD4D0000AD4D000057
:10418000B14D0000794E0000894E0000694E0000DC
:10419000AD4D0000AD4D0000AD4D0000AD4D000037
:1041A000AD4D0000AD4D0000AD4D0000AD4D000027
:1041B000AD4D0000AD4D0000AD4D0000AD4D000017
:1041C000AD4D0000AD4D0000AD4D0000AD4D000007
:1041D000AD4D0000AD4D0000AD4D0000AD4D0000F7
:1041E000AD4D0000AD4D0000AD4D0000AD4D0000E7
:1041F000AD4D000000000000AD4D0000AD4D0000D1
:10420000AD4D0000AD4D0000AD4D0000AD4D0000C6
:10421000AD4D0000AD4D0000AD4D0000AD4D0000B6
:10422000AD4D0000AD4D0000AD4D0000AD4D0000A6
:10423000AD4D0000AD4D0000AD4D0000AD4D000096
:10424000AD4D0000AD4D0000AD4D0000AD4D000086
:10425000AD4D0000AD4D0000AD4D0000AD4D000076
:10426000AD4D000010B5054C237833B9044B13B1A4
:104270000448AFF300800123237010BD000200202A
:1042800000000000CC77000008B5034B1BB10349C8
:104290000348AFF3008008BD0000000004020020C6
:1042A000CC77000008B50121062001F0B1F801210A
:1042B000072001F0ADF8BDE808400121052001F01C
:1042C000A7B800BF38B5124C04F580750021062050
:1042D00001F0ECF834F8023F00221B0A0721052008
:1042E00001F080F9237800220721052001F07AF9F6
:1042F000012000F0D7FD0121062001F0D7F80120B0
:1043000000F0D0FDC82000F0CDFDAC42DED138BDBC
:10431000FEFFFF1F014800F041BC00BF1C0200204F
:10432000014800F03BBC00BF1C020020014800F027
:1043300035BC00BF1C020020014800F02FBC00BFAC
:104340001C02002008B50121072001F061F8BDE83A
:1043500008400121072001F0A9B800BF10B512499B
:104360001248134C82B000F037F81249124800F09E
:1043700033F81249124800F02FF81249124800F0A1
:104380002BF84FF08641114800F026F810492046DE
:1043900000F022F800220123CDE9003221460D4829
:1043A00000F0C0FB02B010BD003000401805002036
:1043B0005405002000340040240500200020014165
:1043C00030050020004001413C0500204805002048
:1043D000000400431C0200200122016002717047AA
:1043E00070B405689DF80C602C68022B44EA827258
:1043F00014BF4FF08074002442EA04022A6004686B
:1044000001F00701626841EA861114BF58030020D9
:1044100042EA01030343636070BC704710B4036851
:1044200012051C6802F440120904224301F44031D1
:104430000A431A600268536843F4403353605DF8DE
:10444000044B70470268136843F00103136002686D
:104450001368D907FCD4D369DB07F9D4704700BFD0
:104460000268136843F0020313600268D3699B0774
:10447000FCD470470268137ED90702D4137E9B07D1
:10448000FCD57047036800225A8370470368187E82
:10449000C0F38000704700BF0368187EC0097047F2
:1044A0000268137E43F08003137670470368588BCD
:1044B000C0F34000704700BF0268538B43F0020313
:1044C000538370470368187E00F00100704700BFF7
:1044D0000368986AC0B270470268137EDB07FCD598
:1044E00091620120704700BF036801229A757047EE
:1044F000036801221A7570479A4A03689342F0B420
:1045000000F01C8102F58062934200F01981964A06
:10451000934200F0178102F50052934200F01B8194
:10452000B3F1864F06D0914A934208BF052502D0C9
:10453000F0BC704704258E4C04EB05132D01B3F934
:104540000630002BC0F2A2805E098A4903F01F07E3
:1045500006F1600C0122BA4041F82C20CF1801224C
:1045600003F01F0302FA03F34FF0E00C87F800C3D7
:1045700041F826306319B3F90830002BC0F292805D
:104580005E097C4903F01F0706F1600C0122BA4066
:1045900041F82C20CF18012203F01F0302FA03F385
:1045A0004FF0E00C87F800C341F826306319B3F9E7
:1045B0000A30002BC0F282805E096E4903F01F07AB
:1045C00006F1600C0122BA4041F82C20CF180122DC
:1045D00003F01F0302FA03F34FF0E00C87F800C367
:1045E00041F826306319B3F90C30002B71DB5E09FA
:1045F000604903F01F0706F1600C0122BA4041F840
:104600002C20CF18012203F01F034FF0E00C02FA18
:1046100003F387F800C341F826300679052E87D0CA
:104620006319554A1B792033114652F823706FF3F2
:10463000861742F8237051F823205706FBD40671E1
:10464000002E4DD14D4A402741F8237082604A49DF
:1046500051F823205006FBD52C444748637920337A
:1046600051F823206FF3861241F8232050F82320BD
:104670005106FBD4002E41D1402240F823203E4970
:1046800051F823205206FBD5F0BC70473C4A03F09A
:104690000F031A44E02313766319B3F90830002B93
:1046A000BFF66EAF364A03F00F031A44E0231376C9
:1046B0006319B3F90A30002BBFF67EAF304A03F01E
:1046C0000F031A44E02313766319B3F90C30002B5F
:1046D0008DDA2B4A03F00F031A44E02313769CE78C
:1046E000012E25D0022E15D0032E2DD0042EAED1B2
:1046F000244A442741F823708260A8E7012E13D092
:10470000022E0DD0032E28D0042E04BF442240F8E0
:104710002320B4E71C4A422741F82370826096E7C1
:10472000422240F82320AAE7412240F82320A6E7AE
:10473000164A412741F82370826088E70025FAE68F
:104740000125F8E60225F6E643274FF4004241F83A
:10475000237082607BE70325EDE6432240F82320A7
:104760008DE700BF003000400020014100040043FD
:10477000C076000000E100E0001C004000C2EB0B2E
:10478000FCEC00E0001BB70000E1F505006CDC026A
:104790002DE9F843064691461F468846FFF7ACFED2
:1047A0003268136843F00103136035682C68E20730
:1047B000FCD4EC69E307F9D44FEA88004FEA4933A7
:1047C0009BB200F01C001843286033688422B8F1C3
:1047D000010F9A7515D131680B4B8889B9F1010F1A
:1047E0000CBF1022082202FB07F7B3FBF7F363F3B9
:1047F0004F30888132689189C3F3CC0363F30C0195
:104800009181BDE8F88300BF0060E3160120704786
:10481000D0F87431D0F87801181A48BF00F5AF709D
:10482000704700BFD0F87821D0F874319A421DBF8C
:10483000D0F87831C018007D4FF0FF30704700BFCE
:10484000F0B5044690F8E4023E4E00EB400C06EB57
:10485000CC0C83B00F469CF90810154600F054FEAE
:1048600094F8E50200EB400306EBC30393F908104C
:1048700000F04AFE94F8E732022B50D094F8E80298
:10488000FF2818D0012100F0C3FD94F8E8322E4A29
:104890002E4803EB430306EBC30C16F93310DCF888
:1048A0000460C9010A440123B3400844C4E9BC239D
:1048B000C4F8EC021360012220693B461146FFF761
:1048C00067FF05F47063B3F5007F206938D0B3F556
:1048D000407F33D0B3F5807F0CBF0521002105F068
:1048E0000F03012B28D0022B0CBF0123022305F05C
:1048F000F005A5F13005B5FA85F56D0900950122A1
:10490000FFF76EFD206994F8E62294F8E712FFF7AE
:1049100085FD206903B0BDE8F040FFF7A1BD94F824
:10492000F802FF28AAD000EB400306EBC30393F97B
:10493000081000F0E9FDA1E70023D8E70721CEE742
:104940000621CCE7A07200001480004118800041CD
:1049500010B504460069FFF775FD0023C4F87431F3
:10496000C4F87831C4F8DC32C4F8E03210BD00BFBE
:10497000D0F8DC32D0F8E0229B1A48BF03F5AF73C1
:10498000002BF5D10069FFF775BD00BFD0F8DC2220
:10499000D0F8E0329A4208DBD0F8DC32D0F8E022DE
:1049A000C3F5AE70013010447047D0F8E032D0F853
:1049B000DC02181A01387047D0F87811D0F8742149
:1049C000914210B4034631D0D0F87801D3F8781171
:1049D000184A0131A2FB01421844D2094FF4AF74C6
:1049E00004FB1212007DC3F8782193F8E822FF2A15
:1049F00010D0D3F87411D3F8782191420DDAD3F89E
:104A00007821D3F87411521A013A0A2AC4BFD3E9A3
:104A1000BC2313605DF8044B7047D3F87421D3F8BE
:104A20007811C2F5AE7201320A44EEE74FF0FF3062
:104A3000DBE700BF91739F5DF0B50368354A1E6ADE
:104A4000964283B05ED1044690F8E402324E00EB09
:104A5000400306EBC3030D4693F9081000F054FD24
:104A600094F8E50200EB400306EBC30393F908104A
:104A700000F04AFD94F8E732022B36D094F8E802B1
:104A8000FF2819D1012220692B461146FFF780FE2D
:104A900000210091206902230122FFF7A1FC206977
:104AA00094F8E62294F8E712FFF7B8FC206903B007
:104AB000BDE8F040FFF7D4BC012100F0A9FC94F858
:104AC000E832164A164803EB430306EBC30716F910
:104AD00033107E68C9010A440123B3400844C4E985
:104AE000BC23C4F8EC021360CCE794F8F802FF286A
:104AF000C4D000EB400306EBC30393F9081000F0A9
:104B000003FDBBE740F21342334603B0BDE8F0407B
:104B1000184700BF41480000A07200001480004107
:104B2000188000412DE9F84F044600254FF4AF7975
:104B3000194E9DF828B09DF82CA04FF47A77C0E963
:104B40000157904640F8146B4A460E4629461F46C8
:104B500002F0B4FAC4F874514A46C4F8785104F526
:104B6000BE70294602F0AAFA284668F3070067F3E8
:104B70000F206BF317406AF31F60FF23C4F8E402B1
:104B800084F8E83284F8F832C4F8DC522661C4F8BC
:104B9000E0522046BDE8F88F2877000038B504467B
:104BA0000069FFF783FC002869D12069FFF76EFCDC
:104BB000A8BB2069FFF786FC20B3D4F8DC32D4F818
:104BC000E0229B1A48BF03F5AF73002B5ED0D4F8E8
:104BD000E022D4F8DC329A4265D0D4F8E012D4F85E
:104BE000E022324B0132A3FB02032144DB094FF4E4
:104BF000AF7000FB132391F87C11C4F8E0322069F8
:104C0000FFF76AFC2069FFF747FC00B938BD20694F
:104C1000FFF746FC2069BDE83840FFF733BC206948
:104C2000FFF756FCD4F87421204BD4F878110132E8
:104C3000A3FB0253DB094FF4AF7505FB13238B4233
:104C400005D0D4F8742122441075C4F8743194F856
:104C5000E832FF2BADD0D4F87421D4F878319A42E1
:104C600018DAD4F87831D4F874219B1A013B092B57
:104C70009FDCD4F8EC32D4F8F4221A6099E720696A
:104C8000FFF726FC2069FFF717FC8EE72069FFF786
:104C90002FFCB7E7D4F87431D4F87821C3F5AE739C
:104CA00001331344E3E7FF21A9E700BF91739F5D40
:104CB0002DE9F041804600690F46FFF703FC48B13B
:104CC000D8F8DC32D8F8E0229B1A48BF03F5AF735E
:104CD000002B5DD0D8F8DC22314CD8F8E01201323C
:104CE000A4FB0203DB094FF4AF7000FB13238B42DC
:104CF00031D12C4D2C4E0DE0D8F8DC22D8F8E01242
:104D00000132A4FB02C34FF4AF70DB0900FB132395
:104D10008B4220D1EFF31083DB0712D46968C1F313
:104D20000801A1F110039AB20029E5D002F00F02A8
:104D3000002BA2F1040233442A44ACBF93F80033A1
:104D4000137ED8F81000FFF7BDFB0028D4D04046F2
:104D5000FFF724FFD0E7D8F8DC22114BD8F8E01297
:104D60000132A3FB0203DB094FF4AF7000FB1323F6
:104D70008B4206D0D8F8DC22424482F87C71C8F815
:104D8000DC32D8F81000FFF7AFFB0120BDE8F0815E
:104D9000D8F810003946FFF79FFB0120BDE8F081ED
:104DA00091739F5D00ED00E000E100E0FEE700BFD1
:104DB000024B1B6803B11847704700BF6005002015
:104DC000F8B51E4D1E4FBD4211D01E4EAE4230D022
:104DD000BD4231D27B1E5B1B23F003031C1D3146F9
:104DE0002246284602F05CF926442B1901E0154EB4
:104DF0002B46BD420DD09E420BD01348134A904221
:104E000007D2013A121A22F003020432002102F002
:104E100055F90F4AD2F8883043F47003C2F888304D
:104E2000BFF34F8FBFF36F8F00F0E0F800F0B4F8DE
:104E3000FEE72B462E46DCE72B46DAE70000002093
:104E400000020020D0770000000200206C0B002040
:104E500000ED00E008B500F09DF800B108BDBDE828
:104E6000084000F08DB800BF024B1B6803B1184723
:104E7000704700BF60050020024B1B6803B1184754
:104E8000704700BF60050020024B1B6803B1184744
:104E9000704700BF60050020014B1860704700BFDD
:104EA0006005002000B970472DE9F84F314B324DB5
:104EB000324CD5F808C0074658682668C0F38060B1
:104EC0009E4602E0164618468C46A968DEF8043075
:104ED0002268C3F380638342F4D1B242F2D16145C8
:104EE00001D93246EEE76B68DFF88880224DA3EBEC
:104EF0000C0C304441F27A434FF47A7603FB0CF306
:104F000006FB00F000EB135600F042F84FF47A7005
:104F100041F27A41D5F808E0D8F80430D4F800908E
:104F2000C3F3806302E0D1466346DE46D5F808B09D
:104F3000D8F80420D4F800A0C2F3806C9C45F2D1CC
:104F4000CA45F0D1F34501D9CA46ECE76A684B443B
:104F500000FB03F3A2EB0E029B1B01FB02F203EB2F
:104F60001253B3F57A7FCFD3013F06F57A76D1D1CC
:104F7000BDE8F88F00ED00E010E000E064050020DF
:104F8000024A13680133136000F088BB64050020F7
:104F9000704700BF0020704708B500F02DF902F0FF
:104FA0004BF8FFF7CFF90120FFF77CFF0D4C0E48BF
:104FB00000F0FAFF0C4801F087F8FFF773F93CB1F5
:104FC000FFF780F9FFF7E4FFAFF30080002CF7D183
:104FD000FFF778F9FFF7DCFFFFF774F9FFF7D8FF69
:104FE000F6E700BF0000000068050020714A724922
:104FF000138842F21E009BB2F0B413800A468882E6
:10500000D368D907FCD56D4A137843F001031370B8
:105010005368DB07FCD440F205136849D3624B6840
:105020009F06FCD44FF48273644A0B62536813F0FA
:105030000403FBD1624963480B770A46886292F801
:105040002C3013F01003FAD15D4982F8203091F82A
:105050002C305E07FBD40B7F594A43F002030B77D9
:1050600092F82C309D07FBD4536A5549536291F84E
:105070002C301C07FBD49823514A81F82030136947
:10508000D805FCD54D4A504B536353681906FCD4E0
:105090004B4B4521C720C2F8841019465863CB6B8F
:1050A0005B07FCD44FF400600223454A886381F813
:1050B0003030136C9F07FCD5136CDE07F9D53F48E1
:1050C0003F4945246323C0F8884093640B6D5D0716
:1050D000FCD44FF400600223394AC86481F844309C
:1050E000536D9C07FCD5536DD807F9D5334A40F270
:1050F0000633536253681907FCD44FF442732F49A7
:1051000093624B68DA06FCD4304B2C4A0B6353682D
:105110005B06FCD440F20733284913624B6813F056
:105120000403FBD12A482B4901224271886963F3A9
:105130008200886172B6284B9A6062B62749284B74
:10514000CA681868274F284E284D294C4FF0801305
:1051500042F080721B68CA603A68C3F3022142F0D1
:1051600001023A600901C3F3421241EA0221C3F38A
:10517000820203F003071143C3F38252B784120182
:10518000C3F3C24642EA0622C3F3024300F01F06FD
:105190001343C0F3441242EA8612C0F3822042EA6B
:1051A00000324FF08240A5F84810A4F84830F0BC17
:1051B000028570470040004100140040001C004080
:1051C0000010004000000104060130000603040046
:1051D000000800400018004000600041F0ED00E0D1
:1051E00084008000001000E000200042001C00430A
:1051F0000020004300000000414A424B1268A3FB1C
:1052000002329209013AB2F1807F74D23E493F489E
:105210003F4BF0B54A60E02600250724C02280F805
:1052200023608D600C6080F823205A69394842F46D
:1052300070425A619A6942F4FC429A61DA6942F01A
:105240007802DA611A6A2CA5D5E900456FEA922244
:1052500083B041266FEA82221A626946C0F8206153
:1052600002AFC0F824614FF0020CCDE900450426DE
:1052700005254FF4C05451F8043B1A8866F30A22FE
:105280001A80DA886CF3C402DA801A6B1007FCD437
:10529000DD721A6B5206FCD49C801A6B12F0040269
:1052A000FBD19A72186B10F02000FBD1B942E2D109
:1052B00000F034F8174B4422C3F82821D3F82821F2
:1052C0005006FBD5144A9368D907FCD41178124BC9
:1052D00041F0010111709A68D207FCD400225A7083
:1052E0009A89022161F30B229A81DA8961F30B22F8
:1052F000DA8103B0F0BDFEE7001C0043002000434C
:1053000000010020D34D621010E000E000ED00E04D
:1053100000080040001C00400024004310B4394A3B
:10532000136BD906FCD4384A136BDB06FCD4013866
:105330000A2815D8DFE800F0192F373D434E1454E2
:105340005A6006002F48304A037A042161F30303B0
:105350000372137A5DF8044B61F303031372704711
:105360002848294A037A0321F0E7284B2548DA69BF
:1053700025496FF31342DA61DA6942F00402DA6117
:10538000037A5DF8044B6FF3030303720B7A6FF338
:1053900003030B7270471D4B1A48DA691A4901243E
:1053A00064F31342E7E7194B1648DA6916490224F9
:1053B000F6E7164B1348DA6913490324F0E7134B59
:1053C0001048DA691049042464F31342DA61DA6997
:1053D0002243D4E70D4B0B48DA690B490524DFE77C
:1053E0000A4B0848DA6908490624D9E7074B0548FB
:1053F000DA6905490724D3E70248034A037A022100
:10540000A4E700BF001C0043002000430018004038
:10541000254B00EB400003EBC00210B492F90840AA
:10542000013414D0C00052681B560120904003295B
:105430000DD8DFE801F01D022A0FDB0103F18243E2
:1054400003F500431A44422182F8401098605DF849
:10545000044B7047DB0103F1824303F500431A4418
:10546000062182F840105DF8044B5860586170477F
:10547000DB0103F1824303F500431A44022182F861
:1054800040105DF8044B58607047DB0103F1824324
:1054900003F500431A44062182F840105DF8044BDE
:1054A00058609861704700BFA0720000154B00EB78
:1054B000400003EBC00230B492F9084001341CD024
:1054C000C00054681B56DB0103F1824202F5004222
:1054D00001209568A040054209D122440D1E92F892
:1054E000404018BF012565F3820482F8404003F173
:1054F000824303F5004311B1986130BC704730BC62
:1055000058617047A072000038B5354C00EB40037D
:1055100004EBC30595F90820B2F1FF3F5DD00D29DA
:1055200007DC002912DA01314FF0FF3018BF0020EC
:1055300038BDA1F10E03DBB2032B05D80F293DD0F6
:10554000102945D011293ED0002038BD6D6815F0D6
:1055500001004FEAC30319D0E256D20102F18242A0
:1055600002F5004202EB55032A4493F8300000F0A4
:105570000F0040EA0111C9B283F8301092F84030B0
:1055800043F0410382F84030002038BDE356DB0190
:1055900003F1824303F5004303EB55042B4494F8D5
:1055A000302002F0F0021143C9B284F8301093F8B1
:1055B000402042F0410283F8402038BD0021FFF72F
:1055C00027FF002038BD0121FFF722FF002038BD52
:1055D0000221FFF71DFF002038BD104638BD00BF77
:1055E000A07200002DE9F04106460D461F46C2B9E3
:1055F00014464FF0010808FA04F33B4214BF01219E
:1056000000213046FFF752FF012128460C44FFF7E6
:105610004DFF00212846FFF749FF082CEBD1BDE8DC
:10562000F08107244FF0010808FA04F33B4214BF4D
:10563000012100213046FFF739FF01212846FFF7FD
:1056400035FF013C00212846FFF730FF631CEBD1FA
:10565000BDE8F081F8B5174682B105460E46002434
:1056600002E00134A74207D02B6816F8011B1B6823
:10567000284698470028F4D12046F8BD1446FBE799
:10568000014B1860704700BF04010020024B4FF02F
:10569000FF321A60704700BF040100200C4A1368F3
:1056A000591C02D0013B136003B1704772B6094B1D
:1056B000094A1A60BFF34F8F0849094BCA6802F4C0
:1056C000E0621343CB60BFF34F8F00BFFDE700BF25
:1056D00004010020FCFF0220EF6916F000ED00E05D
:1056E0000400FA05704700BF0369F0B55BB9EFF33A
:1056F000108472B690F8245095B974B962B6BFF3AD
:105700006F8F1846F0BDEFF31084234672B690F801
:105710003450002D31D1002CF0D000231846F0BDBC
:10572000002C7DD0002A00F08B80013907E08569CC
:10573000C66101332C5D01F8014F9A4274D0C469EF
:10574000056AAC4204F10106F1D3026AA242D8D143
:105750004FF0000C0122C0F81CC00261EFF3108E64
:1057600072B680F824C090F835206ABBBEF1000FF5
:10577000C7D162B6BFF36F8FC3E7002C4CD0002AAD
:1057800061D00139002307E0856AC66201332C5DD0
:1057900001F8014F9A424DD0C46A056BAC4204F146
:1057A0000106F1D3026BA242ABD14FF0000CC0F85E
:1057B0002CC0C0F810C0EFF3108E72B680F834C061
:1057C00090F83520002AD1D04268047A116880F818
:1057D00035C001EB441502EB441495F80971C66815
:1057E00047F0010785F80971A56866F39B35A56048
:1057F000047A02EB441294686CF30D049460027A0C
:10580000083201EB4212117941F040011171BEF1F1
:10581000000F7FF476AFACE762B6BFF36F8FAEE7F1
:1058200062B6BFF36F8F7DE7C469026AA2427FF45C
:1058300068AF8DE7C46A026BA2427FF462AFB4E73F
:10584000C469134681E7C46A1346ABE710B5044642
:10585000806901F01DFCA06A01F01AFC204610BD11
:1058600010B50446806901F013FCA06A01F010FC39
:10587000204601F085FA204610BD00BF036973B9C8
:10588000EFF3108272B690F82430DBB212B962B630
:10589000BFF36F8F73B1036AC069181A7047EFF3D3
:1058A000108272B690F83430DBB212B962B6BFF330
:1058B0006F8F0BB900207047036BC06A181A7047CE
:1058C00070B44468017A266801F1080206EB4212BE
:1058D000D579EB0720D545690123D371F5B904EBE0
:1058E00041154901AA68C2F30D020262026A002A48
:1058F00036D0826A43616A60EFF3108172B680F835
:10590000243090F8342002F0FF04FAB180F83530EA
:1059100011B962B6BFF36F8F70BC704704EB4115CD
:105920004901AA68C2F30D020263026BC2B1826927
:10593000002141616A60EFF3108172B680F8343063
:1059400090F8242002F0FF04002ADFD180F83540CF
:1059500011B962B6BFF36F8F4468017A26684901B6
:105960007318214493F80921C56842F0010283F8B5
:1059700009218B6865F39B338B60037A04EB431337
:105980009A686FF30D029A60037A083306EB4313AB
:1059900070BC1A7942F040021A7170472DE9F84341
:1059A000012A00AF3AD9D31D03F4FC73ADEB030D0C
:1059B000084615460C4601F043FC01304000032325
:1059C000022D8DF800008DF801306E4659D0611E11
:1059D00002204FF0000C07E09D423454D0B222D098
:1059E000854206F803C006D911F8014F431C821CFA
:1059F000DBB2002CF0D1284B1B7802463BB9274B79
:105A00001C786CBBB0B92046BD46BDE8F883041EC7
:105A100018BF01242046BD46BDE8F8830024204677
:105A2000BD46BDE8F8831C4B1B7828460246002B78
:105A3000E5D0ECE7C0F30D05194C3146204601F0E6
:105A40002FFB184B5C619A696FF39B329A619A69DC
:105A5000012465F30D0220469A61BD46BDE8F88336
:105A6000041E85B218BF0124DFF840900E48B9F833
:105A7000008031464044454401F012FBA9F8005033
:105A8000C1E7054B1C78002CBDD1044B1C782A467D
:105A9000002CD1D0E8E700BF14090020180A00202C
:105AA00094050020240A0020180900201A0A00206A
:105AB0002DE9F04385B0544F0DF1040900254FF056
:105AC000010848460E4687F800808DF8045001F022
:105AD000C9F9044601F060FA494601F023FA20446E
:105AE0000930092E9DF804308DF80A5080B23D70BF
:105AF00047D040F20924A02132228DF80830ADF8B9
:105B00000440ADF806008DF809808DF80B108DF873
:105B10000C2099E807003D4C3D4EDFF800918DF8D0
:105B2000035003C4092322700DF10300A9F80030CB
:105B300086F8008001F096F901F02EFA0DF10301CC
:105B400001F0F0F93F78357017B9B9F800501DB978
:105B5000012005B0BDE8F0832E4E2A46A4F10801CD
:105B6000304601F09DFA2C4B5E619A6967F39B32D7
:105B70009A619A69012065F30D029A6105B0BDE84A
:105B8000F083234A17782FBB8DF8083040F20923A1
:105B9000ADF80430A0238DF80B301F4DADF8060092
:105BA00032238DF80C308DF809801A4C6C6199E81D
:105BB0000700D5F818C0234667F39B3CC5F818C00A
:105BC00003C3A9691A7066F30D010120A96105B02C
:105BD000BDE8F083114C8DF8083040F20921A02275
:105BE0008DF80B20ADF806008DF80980ADF8041093
:105BF0002388064DB9E80300EA18E850093332203B
:105C0000516023801072A3E71409002018090020B6
:105C1000180A002094050020240A00201A0A0020F7
:105C2000F0B5CD78022D93B00E4639D0074601F07D
:105C3000B3F9314601F08CF9041E2BD1012D39D076
:105C4000032D2AD1B378002B40D1F588032D4FF0D6
:105C5000040200F28381B649EDB21346002D00F034
:105C600097812A46B34B1C78BCB9B34B1C78002CE7
:105C700040F07E81B14E304601F012FAB04B5E61C9
:105C80009A6964F39B329A619A6965F30D029A618D
:105C9000012402E0CCBF01240024204613B0F0BD53
:105CA000C988A848FFF704FF041E18BF0124204636
:105CB00013B0F0BDF588112D4FF0120203D8A249A0
:105CC000EDB21346CAE7A0491546CBE7022B00F018
:105CD0005881012B00F04581032BDED19B4B1B68C3
:105CE00003F00F02092AD4BF30323732190901F00C
:105CF0000F018DF80B201A0A02F00F020929D4BFF8
:105D000030313731092A8DF80A10D4BF303237329A
:105D1000190B01F00F018DF809201A0C02F00F0287
:105D20000929D4BF30313731092A8DF80810D4BF82
:105D300030323732190D01F00F018DF807201A0E9D
:105D400002F00F0209294FEA1373D4BF3031373103
:105D5000092AD4BF30323732092B8DF80520CCBF49
:105D6000373330337A4A8DF806108DF804301368D3
:105D700003F00F02092AD4BF30323732190901F07B
:105D80000F018DF813201A0A02F00F020929D4BF5F
:105D900030313731092A8DF81210D4BF3032373202
:105DA000190B01F00F018DF811201A0C02F00F02EF
:105DB0000929D4BF30313731092A8DF81010D4BFEA
:105DC00030323732190D01F00F018DF80F201A0E05
:105DD00002F00F0209294FEA1373D4BF3031373173
:105DE000092AD4BF30323732092B8DF80D20CCBFB1
:105DF00037333033574A8DF80E108DF80C30136856
:105E000003F00F02092AD4BF30323732190901F0EA
:105E10000F018DF81B201A0A02F00F020929D4BFC6
:105E200030313731092A8DF81A10D4BF3032373269
:105E3000190B01F00F018DF819201A0C02F00F0256
:105E40000929D4BF30313731092A8DF81810D4BF51
:105E500030323732190D01F00F018DF817201A0E6C
:105E600002F00F0209294FEA1373D4BF30313731E2
:105E7000092AD4BF30323732092B8DF81520CCBF18
:105E800037333033344A8DF816108DF814301368D8
:105E900003F00F02092AD4BF30323732190901F05A
:105EA0000F018DF823201A0A02F00F020929D4BF2E
:105EB00030313731092AD4BF303237328DF82210D1
:105EC000190B01F00F018DF821201A0C02F00F02BE
:105ED0000929D4BF30313731092AD4BF30323732A3
:105EE0008DF82010190D8DF81F2001F00F011A0EEA
:105EF00002F00F0209294FEA1373D4BF3031373152
:105F0000092AD4BF30323732092BCCBF3733303374
:105F10008DF81E108DF81D208DF81C30B2790023ED
:105F2000384601A98DF82430FFF738FD0446B4E661
:105F30008477000014090020180A0020940500202E
:105F4000240A00206805002094770000FC6180008E
:105F50001060800014608000186080000D491546B4
:105F600080E6B2790C493846FFF718FD044694E6FE
:105F70000A4F0B483E883044354401F091F83D808B
:105F80008BE6B27907493846FFF708FD044684E6F8
:105F90001D4667E684770000887700001A0A002013
:105FA0001809002074770000F8B53F4B3F4E0024DD
:105FB000012105461A201C70FFF72AFA01211A2038
:105FC000FFF774FA3A4B012119201C70FFF720FAF1
:105FD00001211920FFF76AFA364A374B9169374891
:105FE00041F001019161116941F48061116193F8FF
:105FF0005820334942F0010283F8582093F83C209E
:1060000002F0F00283F83C2093F83C2042F00702B3
:1060100083F83C2093F8592042F0010283F859207C
:1060200093F83C2002F00F0283F83C2093F83C20C8
:1060300042F0700283F83C204123C1F8A830FEF7FB
:106040002BFF304600F0C0FF304600F0D3FF32682F
:106050001C4B117864F3C7111170117841F00401E1
:106060001170118964F3830111814FF480374FF46B
:1060700000364FF480204FF4002183F8504383F81A
:10608000514383F8524383F853439F609E60986066
:106090009960137843F00203137093789B07FCD444
:1060A00001232B70F8BD00BF89050020240A0020C1
:1060B000880500200008004000800041556D000068
:1060C000001C004000E100E00078A0B110B40A4BD1
:1060D0000A491B681A896FF300021A811A8B42F071
:1060E00008021A831A8B42F0040200241A830C60FF
:1060F0005DF8044B70477047240A00201C0A0020FA
:10610000214B53F8210010B50C46002832D003680B
:106110001E4A9B68934235D10369DBB9EFF31082C5
:1061200072B690F82430DBB212B962B6BFF36F8F4B
:106130007BB1036AC069181A58B1154BE1B21B68EC
:10614000083103EB411102224B7943F080034B717C
:10615000CA7110BDEFF3108272B690F83430DBB222
:1061600012B962B6BFF36F8F002BF2D0036BC06A17
:10617000181AE1E7064BCAB203EB42139868C0F362
:106180000D00D9E79847D7E76C0500207D5800003F
:10619000240A0020F0B42B4C2B4F236893F8040101
:1061A00040F0400083F804016760A068082565F3AB
:1061B0009B30A060A0686FF30D00A06093F804010D
:1061C00040F0400083F8040193F806014606FBD531
:1061D00093F80701C507FBD5A068C0B2904228BF5D
:1061E000104612B3CC1CE41B062C02F1FF331ED95F
:1061F000072B1CD922F00306134C0E440B4654F80F
:10620000045B43F8045BB342F9D1940722F0030323
:106210000BD0FC5CCC545C1CA24206D902333D5D21
:106220000D559A4201D9FA5CCA54F0BC7047064A2F
:106230000B44013912F8014B01F8014F9942F9D191
:10624000F0BC7047240A002054070020194B53F873
:10625000210030B30368184A9B68934229D103692F
:1062600073B9EFF3108272B690F82430DBB212B932
:1062700062B6BFF36F8F93B1036AC069181A704793
:10628000EFF3108272B690F83430DBB212B962B616
:10629000BFF36F8F1BB1036BC06A181A70470020E1
:1062A0007047064BC9B203EB41118868C0F30D007B
:1062B000704718476C0500207D580000240A002014
:1062C000964B1B68002B00F0BF802DE9F041944DE8
:1062D0002B780C4682B003F0FF01FBB1914B53F8D1
:1062E000243064222A701BB319688F4A4C68944288
:1062F00040F08E801D69002D5ED1EFF3108172B6E3
:1063000093F82420002A40F08A8011B962B6BFF3C6
:106310006F8F4FF0FF3002B0BDE8F0811920FFF71A
:10632000C5F8804B53F8243064222A70002BDBD14F
:106330007E4FE6B207EB461173018A68C2F30D0285
:10634000002A57D0F91801258A68C2F30D023F2AA6
:1063500059D98868403A62F30D008860D7F8008008
:1063600073491F444344BA6893F8082142F001027C
:1063700083F8082101EB84112A460DF1070003F58B
:10638000847400F08DFE002DC3D0BB68C3F30D03F1
:106390005BB9083608EB46160122337943F0400317
:1063A0003371F271637813436370012DB1D19DF89D
:1063B000070002B0BDE8F081EFF3108172B693F8E8
:1063C0003420002AA1D011B962B6BFF36F8FD96A09
:1063D0001A6B91423BD24A1C986ADA62405C196B94
:1063E000C0B28A428DF8070008BF012535D002B03F
:1063F000BDE8F0818D68F918C5F30D058A68C2F310
:106400000D023F2AA5D88A686FF30D028A60A5E7BE
:10641000184601220DF10701A0470546C5E711B94D
:1064200062B6BFF36F8FD9691A6A91424ED24A1C85
:106430009869DA61405C196AC0B28A428DF8070037
:106440007FF469AF012545E04FF0FF3070471A6BCC
:10645000914208BF00257FF45CAF4FF0000CC3F8F9
:106460002CC0C3F810C0EFF3108E72B683F834C09E
:1064700093F8352012B359681C7A0F6883F835C039
:1064800007EB441201EB441492F80961D86846F016
:10649000010682F80961A26860F39B32A2601A7A51
:1064A00001EB42118A686CF30D028A601B7A083393
:1064B00007EB43131A7942F040021A71BEF1000F44
:1064C0007FF473AF62B6BFF36F8F6EE71A6A9142C3
:1064D0007FF41FAF4FF0000C0122C3F81CC01A61FB
:1064E000EFF3108E72B683F824C093F83520002A9B
:1064F000E4D059681A7A0F6883F835C007EB421068
:1065000001EB421290F80961DC6846F0010680F860
:106510000961906864F39B309060C0E71C0A00201A
:10652000880500206C050020E9560000240A0020A0
:10653000540700202DE9F04F4248006883B000283E
:1065400077D0B3F5804F1F4673D83F4C23780D4664
:10655000904603F0FF01002B67D064232370002FC7
:106560006DD0DFF80091394BD9F80040384E5FFA12
:1065700085FB0BF1080204EB42144FEA4B1B03EBC3
:1065800085134FF0000AA279D20927D1402F3A464D
:10659000414628BF40224FF0000C184606F805C0BF
:1065A000019200F07DFD034609EB0B00019A436167
:1065B00000F1100180694FF0020C62F30D00886059
:1065C00084F807C06179BF1A41F080019244904479
:1065D0006171D8D1504603B0BDE8F08F1D491E4807
:1065E00009681E4AA0FB0101890C02FB01F21C494B
:1065F000A1FB0212120901E0511C07D0E1798807C2
:1066000002F1FF32C2D4715D0029F5D0D9444FF0B8
:10661000FF3AD9F8183001226FF30D035046725536
:10662000C9F8183003B0BDE8F08F1A20FEF73EFF1E
:1066300093E74FF0FF3A504603B0BDE8F08FBA46FB
:10664000C8E700BF1C0A002089050020940500202F
:106650008C0500200001002083DE1B437011010027
:10666000C94216B2240A0020124B1B7870B514469A
:106670001BB9114B1D7895B90AB9204670BD0F4E54
:10668000304600F00DFD0E4B5E619A6965F39B325A
:106690009A619A6964F30D029A61204670BD094EB1
:1066A000094835882844254400F0FAFC3580204606
:1066B00070BD00BF14090020180A002094050020B6
:1066C000240A00201A0A0020180900202DE9F04FA2
:1066D0004B7885B00B2B2BD8DFE813F00C0039007A
:1066E0002A002E002A004700D500350068007A00F5
:1066F000C900CB000A78002A00F0CA80B44B1A788F
:10670000B4480023012AADF80C3018BF1A46B24B2A
:1067100004BF8DF80C20BDF80C20586199690280E7
:106720006FF39B3199619A69022161F30D029A61BD
:10673000012005B0BDE8F08F8B78012B00F05E8161
:10674000002B00F0AD80002005B0BDE8F08F8B7805
:10675000012B00F03A81A04A9D489169002363F320
:106760000D01916103700120E3E79B4B8C789969DF
:106770001A686FF30D010220996182F8070192F8FF
:10678000053143F0800382F8053192F8073199070B
:10679000C3F34000F9D54FF082439A7A64F30602BE
:1067A0009A729A7A42F080029A72C2E78B4A8A4BB6
:1067B0008849107859619A6908706FF39B329A6121
:1067C0009A69012060F30D029A6105B0BDE8F08F6F
:1067D0000B78DB06B7D1824EDFF8FC817368002BA3
:1067E00000F0DA80DFF8109201910836012426E0EB
:1067F000022B5ED0032B00F0C180822B19D108EB55
:1068000044170320BA6960F31E72BA61D8F8001009
:10681000704A04F1080301EB431502EB84127A611C
:106820002A795B0142F080022A71CA5C60F3061289
:10683000CA5456F8043B0134002B00F0AC80832B83
:10684000D6D108EB44100321826961F31E72826184
:10685000604AD8F8001004F1080302EB84125B01CF
:106860004261CA5C042060F30612CA54E1E75D4A43
:106870009DE75C4A8978584B11609A696FF30D0265
:106880009A61012055E705B0BDE8F04FFFF7C8B9A0
:10689000514B504858619969028062F39B3141E73E
:1068A0004D4A4B4C9169012063F30D0191612070B9
:1068B0003FE759F8245075B12B684B4A5B69934206
:1068C00040F0AD80A86900F0E3FBA86A00F0E0FBAF
:1068D000284600F055FA382000F050FA0546002707
:1068E000424BC0F804804FF4807B2F622B6085F808
:1068F0002470AC602F632F6185F834706F61EF6195
:10690000EF6285F83570C5F80CB0584600F0B8FB5A
:106910008246C5F818A0584600F0B2FB08EB4413B5
:106920004FF0030C9A68A8626CF31E729A6004F12F
:106930000802D8F8000049F824504FEA421E00EB44
:10694000421210F80E506CF3020500F80E5000EBE6
:10695000441CC3F804A09CF8091141F001018CF813
:10696000091199686BF39B319960996867F30D0180
:106970009960137943F0400313715AE759F82400E2
:1069800000283FF456AF0368194ADB6893423FF48E
:1069900050AF98474DE70199104AD8F800308978F0
:1069A000116093F8292142F0020283F8292193F81B
:1069B000492142F0010283F84921D8F818306FF3D9
:1069C0000D03C8F818300120B3E60A4B97E600BF64
:1069D0008A05002094050020240A00201C0A0020BB
:1069E00008010020200A0020615800005C770000A8
:1069F000E5560000930500206C050020094A0A486E
:106A000050619169094D002464F39B319161916952
:106A1000047063F30D01916118462B7089E62846D6
:106A2000984758E7240A0020940500209305002089
:106A30002DE9F047B94E33689A8B1207044600F1EE
:106A400039819A8B570712D5B54A04219983137857
:106A50003BB11378013BDBB213701378002B00F0CD
:106A60007381B04B1A78002A40F0EC80336893F8B9
:106A70000721D50628D51022AB4D83F8072193F8BE
:106A80000421297842F0400211F0600F83F80421BC
:106A900040F0E58029462046FFF718FE002840F028
:106AA00001814FF08243202283F80521336893F857
:106AB0000721540608D5402283F8072193F80821BE
:106AC00042F0400283F808211D8CDFF86882DFF86D
:106AD000689205F0FE0500240127002D51D045FAEB
:106AE00004F3D8074AD5326804F1080302EB4313D4
:106AF000D979C90702D4DB799B073BD558F8240024
:106B0000002840D003681B684B4540F0178143685C
:106B1000027AD3F800C002F108010CEB411191F8A0
:106B200007E01EF0010F25D0D0F814E0CF71BEF1C0
:106B3000000F3BD103EB421E5201DEF80810C1F3F7
:106B40000D010162016A002955D0836A4761CEF8C0
:106B50000430EFF3108272B680F8247090F834306D
:106B600003F0FF01002B3BD080F8357012B962B6FC
:106B7000BFF36F8F07FA04F325EA03050134092CEC
:106B8000ABD1BDE8F087032CE3B275D0012BF1D176
:106B900092F8243143F0800382F82431022107FA6D
:106BA00004F382F8271125EA0305E7E703EB421E09
:106BB0005201DEF80810C1F30D010163016BD1B180
:106BC000836900224261CEF80430EFF3108272B67E
:106BD00080F8347090F8243003F0FF01002BC3D10B
:106BE00080F8351012B962B6BFF36F8F4368027A2E
:106BF000D3F800C052010CEB020E1A449EF80911A2
:106C0000D0F80CA041F001018EF8091191686AF3E7
:106C10009B319160027A03EB42130EF5847E9A68F1
:106C20006FF30D029A60037A08330CEB431C9CF857
:106C3000043043F040038CF8043007FA04F325EAEB
:106C400003059BE71A78013AD2B21A701B78002B21
:106C50007FF40CAF01211920FEF728FC06E72B7901
:106C6000C3B100F099F9294600F084F9D0B9B369AD
:106C700060F30D03B36114E792F8643143F08003CD
:106C800082F86431022107FA04F382F8671125EAD9
:106C9000030573E7284600F0F5F818B9B36960F307
:106CA0000D03B361336893F8052142F0800283F845
:106CB0000521FCE6B2681C491C4D032060F31E72DE
:106CC000B260716093F80021012161F3020283F840
:106CD0000021B26960F31E72B261756193F8002100
:106CE000134861F3061283F80021B268402161F372
:106CF0009B32B260B2686FF30D02B26093F8052167
:106D00000A4383F8052193F80921002542F0100277
:106D1000082183F809210560998392E6240A00205E
:106D200089050020880500205407002094050020D4
:106D30001C0A00206C050020C1580000984707FA83
:106D400004F325EA030519E701211A20FEF7AEFB3B
:106D500087E600BF034B1B7813B90348FFF768BEF3
:106D6000704700BF180A002068050020024B4FF052
:106D700082421A60704700BF240A002000F080B9E8
:106D800000F086B93F20704700690221FFF75EBA24
:106D900000690321FFF7B4B910B5084BDB7904464D
:106DA0001BB901236360002010BD134600690A4629
:106DB0000321FFF7BFFB0028F3D010BD34010020F2
:106DC000064A1368591C04D04FF0FF311160184671
:106DD000704700690221FFF773BA00BF80010020ED
:106DE00010B50A4C23685A1C0AD1036808495B692C
:106DF0008B4207D100690221FFF762FA0346236044
:106E0000184610BD98470346F9E700BF80010020EF
:106E1000C16D000010B50368104A5B6882B09342F0
:106E20008DF8071013D10E4BDB79044623B90123EB
:106E30000020636002B010BD006901230DF107025C
:106E40000321FFF777FB0028F1D002B010BD01222B
:106E50000DF10701984702B010BD00BF996D000009
:106E60003401002010B404780449034602341C7035
:106E700003485DF8044B4222FFF7F6BB3C010020BB
:106E80006805002010B503784278A12B0ED0212B85
:106E900001D0002010BD202A20D0222A0FD0232A82
:106EA000F7D1144B42881A60002010BD212AF0D17E
:106EB000114912480722FFF7D7FB012010BD0E4BE6
:106EC0008278DA711A68B2F5966F03D1D87910F02A
:106ED00001040AD0FEF7DAFB002010BD064907487E
:106EE0000722FFF757F9044BECE7FA20FEF7C8FB3F
:106EF000204610BD3001002034010020680500202C
:106F0000054B064A06491A604FF47A7000229860D1
:106F100019615A601A767047280B0020B07700007C
:106F20006805002070B5446884B10E46002502E073
:106F3000E468054444B1236831465B6820469847BD
:106F40000028F5DA4FF0FF35284670BD2546FBE7EF
:106F500038B544685CB10D4601E0E4683CB1236893
:106F600029469B68204698470028F6D038BD002067
:106F700038BD00BF38B544685CB10D4601E0E46837
:106F80003CB1236829461B68204698470028F6D064
:106F900038BD002038BD00BF094A136813F0010353
:106FA0000BD1084910B440F2024401200C8010605B
:106FB0005DF8044B03484B6070470248704700BFC0
:106FC000440B0020480B002038B505464FF4807272
:106FD00055F8044B237843F0010323702846002121
:106FE00000F06CF8A378DA07FCD4A3789B07F9D4F7
:106FF000656238BD0F4B02681B68108D03F01F01DE
:107000001F2908BF052161F38A101085C3F34411BD
:10701000108D1F2908BF1D2161F30400C3F38223D3
:107020001085118D072B08BF032363F30E311185E3
:10703000704700BF8400800070B50D4D0D4C641B7F
:10704000A4100026A64209D10B4D0C4C00F01CF9EF
:10705000641BA4100026A64205D170BD55F8043B60
:1070600098470136EEE755F8043B98470136F2E7BA
:10707000E8010020E8010020E8010020F8010020DC
:10708000024B0146186800F071B800BF840100206F
:10709000024B0146186800F019B800BF84010020B7
:1070A0000A44914200F1FF3300D1704710B511F846
:1070B000014B03F8014F9142F9D110BD0244034640
:1070C000934200D1704703F8011BF9E737B5002957
:1070D00048D051F8043C0190002BA1F10404B8BF42
:1070E000E41800F0B5F8204A01981368154633B942
:1070F0006360146003B0BDE8304000F0AFB8A34255
:107100000BD921686218934204BF1A685B686360F8
:1071100004BF521822602C60ECE71A465B680BB182
:10712000A342FAD911685518A5420BD1246821440D
:107130005418A3421160DDD11C685B685360214480
:107140001160D7E702D90C230360D3E725686119E2
:107150008B4204BF19685B68636004BF49192160F2
:107160005460C7E703B030BD500B0020F8B5CD1C0C
:1071700025F0030508350C2D38BF0C25002D0646DB
:1071800001DBA94203D90C2333600020F8BD00F0D5
:107190005FF821490A6814469CB9204F3B6823B91F
:1071A0002146304600F03CF838602946304600F071
:1071B00037F8431C23D10C233360304600F04EF8DF
:1071C000E3E723685B1B17D40B2B03D923601C4414
:1071D000256004E06368A2420CBF0B605360304638
:1071E00000F03CF804F10B00231D20F00700C21A48
:1071F000CCD01B1AA350C9E722466468CCE7C41C54
:1072000024F00304A042E3D0211A304600F008F82D
:107210000130DDD1CFE700BF500B0020540B002020
:1072200038B5064D0023044608462B6000F01EF8D2
:10723000431C02D12B6803B1236038BD5C0B0020D6
:10724000034613F8012B002AFBD1181A01387047A6
:10725000014800F009B800BF640B0020014800F0AD
:1072600004B800BF640B002070477047044A05490A
:107270001368002B08BF0B4618441060184670476F
:10728000580B00206C0B0020F8B500BFF8BC08BC00
:107290009E467047F8B500BFF8BC08BC9E467047D4
:1072A00001000000110000000200000000020000C8
:1072B000FF000400FFFF01000100000010000000BB
:1072C0000200000000020000FF000500FFFF0000B8
:1072D000FF00000000000000FF00000000000000B0
:1072E000FF00FFFFFFFFFF00FF00000000000000A5
:1072F000FF00000000000000FF00FFFFFFFFFF0095
:10730000000000000E0000000E0000000800000059
:10731000FF00000800080E00000000001000000040
:107320000500000000010000FF0000010007000050
:107330000000000012000000050000000001000035
:10734000FF0002010008020001000000030000002D
:107350000E00000004000000FF00FFFFFFFFFF0021
:1073600001000000020000000E0000000400000008
:10737000FF00FFFFFFFFFF00000000001300000000
:107380000500000000010000FF00030101080300E8
:1073900000000000140000000500000000020000D2
:1073A000FF000000FFFF04000000000015000000C7
:1073B0000E00000000020000FF000100FFFF0500BA
:1073C00000000000160000000E0000000002000097
:1073D000FF000200FFFF0600000000001700000091
:1073E0000E00000000020000FF000300010907007A
:1073F0000000000002000000010000000200000088
:107400000000FFFFFFFF0200000000000500000079
:1074100001000000020000000500FFFFFFFF050063
:107420000100000008000000010000000A00000048
:107430000200000900090800010000000900000026
:10744000010000000A000000030001090109090011
:107450000000000004000000010000000A0000001D
:107460000400000500050400000000000600000004
:10747000010000000A0000000600000600060600E9
:1074800001000000000000000100000002000000F8
:107490000C00FFFFFFFF0000000000000C000000D8
:1074A0000200000008000000FF00000700070C00B9
:1074B000000000000D0000000200000008000000B5
:1074C000FF00010701070D00010000001600000089
:1074D0000200000004000000FF00FFFFFFFF0600A5
:1074E000010000001700000002000000040000007E
:1074F000FF00FFFFFFFF0700000000001100000079
:107500000200000004000000FF00FFFFFFFF010079
:10751000FF00000000000000FF000000000000006D
:10752000FF00FFFFFFFFFF00FF0000000000000062
:10753000FF00000000000000FF00FFFFFFFFFF0052
:10754000FF00000000000000FF000000000000003D
:10755000FF00FFFFFFFFFF00000000001800000019
:107560000700000000000000FF00FFFFFFFFFF001A
:10757000000000001B0000000700000000000000E9
:10758000FF00FFFFFFFFFF000000000003000000FE
:107590000100000002000000FF00FFFFFFFFFF00EE
:1075A00000000000020000000100000002000000D6
:1075B0001400FFFFFFFFFF000000000005000000B7
:1075C00001000000020000001500FFFFFFFFFF00A8
:1075D000010000000A000000070000000000000099
:1075E000FF00FFFFFFFFFF00010000000B00000095
:1075F0000700000000000000FF00FFFFFFFFFF008A
:10760000000000000800000007000000000000006B
:10761000FF00FFFFFFFFFF00000000000900000067
:107620000700000000000000FF00FFFFFFFFFF0059
:10763000000000000A000000070000000000000039
:10764000FF00FFFFFFFFFF00000000000B00000035
:107650000700000000000000FF00FFFFFFFFFF0029
:10766000010000000C0000000E00000000000000FF
:10767000FF00FFFFFFFFFF00010000000D00000002
:107680000E00000000000000FF00FFFFFFFFFF00F2
:10769000010000000E0000000700000000000000D4
:1076A000FF00FFFFFFFFFF00010000000F000000D0
:1076B0000700000000000000FF00FFFFFFFFFF00C9
:1076C0000030004007032E002F0030003100000082
:1076D000003400400803320033003400350000005D
:1076E0000020014117033600370038003900000040
:1076F0000040014118033A003B003C003D000000FF
:107700000000004322033E003F0040004100000013
:1077100000040043230342004300440045000000EE
:107720000000000000000000B14C000055560000B1
:107730008D4900007149000011480000B94900005E
:1077400025480000394A0000414800005149000026
:107750000D4800000000000000000000C1580000BB
:10776000E95600007D580000E55600004D58000025
:107770006158000046656174686572204D3420438D
:10778000414E000004030904416461667275697426
:107790000000000012010002EF0201409A23CD8098
:1077A00000010102030100000000000000000000D1
:1077B000156E0000996D0000856D0000916D000050
:1077C000896D0000C16D0000E16D00000000000047
:1077D000FEFFFFBFFFEFFFFDFFFEFF7F7FFFF7FF15
:1077E000FBFFFDFFFFDFFFF7FFFBDFFFBFFFEFFF4B
:1077F000FFFFFFFFFFFFFFFFFFFFFFFFFFFFFFFF99
:10780000FFFFFFFFFFFFFFFFFFFFFFFFFFFFFFFF88
:10781000FFFFFFFFFFFFFFFFFFFFFFFFFFFFFFFF78
:10782000FFFFFFFFFFFFFFFFFFFFFFFFFFFFFFFF68
:10783000762CDDFF6E26FE24E7E5E6346634FEADE9
:107840006624E624FFFFFFFFFFFFFFFFFFFFFFFFB0
:10785000FFFF66A5DC24763EDC2C663666B7763400
:1078600067E5DC3E7F6C67DB777E73CD73E9762C52
:1078700066A7762866A3E230DCBF776C37DF37E98E
:10788000BBDBDBDFBE1EFFFFFFFFFFFFFFFFFFFFD6
:10789000FFFF4F7E477F6F7F4D7F2F7FCDB7C47F28
:1078A00047FFDEFFDD7F67F3777F4FF54FFF4F7FA9
:1078B00064FFC4FF6FFFFF72677F5F7F3FFF3FF989
:1078C000BBDBC57FAF7FFFFFFFFFFFFFFFFFFFFFBA
:1078D00000C2EB0BFFFFFFFF000000008300000071
:1078E0000200000082000000000000000000000014
:1078F0000000000000000000000000000000000088
:10790000FFFFFFFF00C2010000000800080B00029B
:107910000202000009040000010202000005240028
:1079200010010424020605240600010524010101BA
:107930000705810310001009040100020A0000007D
:107940000705020240000007058302400000000016
:10795000FFFFFFFF88010020000000000000000082
:107960000000000000000000000000000000000017
:107970000000000000000000000000000000000007
:1079800000000000000000000000000000000000F7
:1079900000000000000000000000000000000000E7
:1079A00000000000000000000000000000000000D7
:1079B0000000000000000000894200005D4300005C
:1079C0006D6D0000016F00006542000000000000C6
:0400000300004DC1EB
:00000001FF
