:100000000C9461000C947E000C947E000C947E0095
:100010000C947E000C947E000C947E000C947E0068
:100020000C947E000C947E000C947E000C947E0058
:100030000C947E000C947E000C947E000C947E0048
:100040000C9459010C947E000C947E000C947E005C
:100050000C947E000C947E000C947E000C947E0028
:100060000C947E000C947E00000000090003020046
:10007000000405080000000000000000000000006F
:10008000000000250028002B0000000000240027AD
:10009000002A00040404040404040402020202020C
:1000A00002030303030303020203010204081020F6
:1000B0004080010204081020010204081020408042
:1000C000400011241FBECFEFD8E0DEBFCDBF12E04D
:1000D000A0E0B1E0E4E2F4E002C005900D92A030AF
:1000E000B107D9F722E0A0E0B2E001C01D92A9302B
:1000F000B207E1F70E94A3010C9410020C940000D7
:1001000090E0FC01E655FF4F24918D569F4FFC0176
:100110008491882399F090E0880F991FFC01E7579C
:10012000FF4FA591B491FC01E158FF4F8591949147
:100130008FB7F894EC91E22BEC938FBF089590E089
:10014000FC01E859FF4F2491FC01E655FF4F349123
:10015000FC01ED56FF4FE491EE23C9F0222339F064
:10016000243001F1A8F4223069F1233079F1F0E074
:10017000EE0FFF1FE158FF4FA591B4918FB7F89490
:10018000EC91611126C030953E233C938FBF0895BA
:10019000283071F0293091F0253049F780918000A6
:1001A0008F7D03C0809180008F7780938000DFCFA8
:1001B0008091B0008F778093B000D9CF8091B0004C
:1001C0008F7DF9CF84B58F7784BDD1CF84B58F7DF6
:1001D000FBCF3E2BDACF3FB7F89480910502909188
:1001E0000602A0910702B091080226B5A89B05C09F
:1001F0002F3F19F00196A11DB11D3FBFBA2FA92FA6
:10020000982F8827BC01CD01620F711D811D911DA2
:1002100042E0660F771F881F991F4A95D1F708950E
:100220008F929F92AF92BF92CF92DF92EF92FF9206
:100230004B015C010E94EB006B017C010E94EB0012
:100240006C197D098E099F09683E734081059105EF
:10025000A8F321E0821A9108A108B10888EEC80E1F
:1002600083E0D81EE11CF11C81149104A104B104A7
:1002700029F7FF90EF90DF90CF90BF90AF909F90C5
:100280008F900895CF93DF93D82FC8E06D2F6170C2
:1002900085E00E949F00D69561E087E00E949F0064
:1002A00060E087E00E949F00C15081F7DF91CF910D
:1002B00008951F920F920FB60F9211242F933F9320
:1002C0008F939F93AF93BF9380910102909102020D
:1002D000A0910302B09104023091000223E0230FA9
:1002E0002D3768F126E8230F0296A11DB11D20933A
:1002F00000028093010290930202A0930302B09344
:1003000004028091050290910602A0910702B0912B
:1003100008020196A11DB11D80930502909306026B
:10032000A0930702B0930802BF91AF919F918F9164
:100330003F912F910F900FBE0F901F90189501962F
:10034000A11DB11DD4CF789484B5836084BD85B5DB
:10035000836085BD80916E00816080936E0082E035
:1003600080938100809181008160809381008091E1
:1003700080008160809380008091B10084608093D0
:10038000B1008091B00081608093B00087E88093D5
:100390007A001092C10086E00E94800087E00E94EF
:1003A000800085E00E94800000E010E0C0E0D1E025
:1003B00060E086E00E949F0061E070E080E090E0F5
:1003C0000E941001F880898122960E94420161E01A
:1003D00070E080E090E00E9410018F2D0E944201A9
:1003E00061E070E080E090E00E94100161E086E052
:1003F0000E949F0061E070E080E090E00E941001A8
:1004000068EC70E080E090E00E94100182E0C03073
:10041000D80771F60115110549F20E940000C6CFF8
:04042000F894FFCF7E
:10042400FEFFFFBFFFEFFFFDFFFEFF7F7FFFF7FF34
:10043400FBFFFDFFFFDFFFF7FFFBDFFFBFFFEFFF6A
:10044400FFFFFFFFFFFFFFFFFFFFFFFFFFFFFFFFB8
:10045400FFFFFFFFFFFFFFFFFFFFFFFFFFFFFFFFA8
:10046400FFFFFFFFFFFFFFFFFFFFFFFFFFFFFFFF98
:10047400FFFFFFFFFFFFFFFFFFFFFFFFFFFFFFFF88
:10048400762CDDFF6E26FE24E7E5E6346634FEAD09
:100494006624E624FFFFFFFFFFFFFFFFFFFFFFFFD0
:1004A400FFFF66A5DC24763EDC2C663666B7763420
:1004B40067E5DC3E7F6C67DB777E73CD73E9762C72
:1004C40066A7762866A3E230DCBF776C37DF37E9AE
:1004D400BBDBDBDFBE1EFFFFFFFFFFFFFFFFFFFFF6
:1004E400FFFF4F7E477F6F7F4D7F2F7FCDB7C47F48
:1004F40047FFDEFFDD7F67F3777F4FF54FFF4F7FC9
:1005040064FFC4FF6FFFFF72677F5F7F3FFF3FF9A8
:10051400BBDBC57FAF7FFFFFFFFFFFFFFFFFFFFFD9
:00000001FF
